{
  "address": "0x1fA2e8678b9EAE6048E546Be1B34a943670CF1ab",
  "abi": [
    {
      "inputs": [
        {
          "internalType": "contract IInputBox",
          "name": "_inputBox",
          "type": "address"
        }
      ],
      "stateMutability": "nonpayable",
      "type": "constructor"
    },
    {
      "inputs": [
        {
          "internalType": "address",
          "name": "_dapp",
          "type": "address"
        },
        {
          "internalType": "bytes",
          "name": "_blockHash",
          "type": "bytes"
        }
      ],
      "name": "relayBlock",
      "outputs": [
        {
          "internalType": "bytes32",
          "name": "",
          "type": "bytes32"
        }
      ],
      "stateMutability": "nonpayable",
      "type": "function"
    }
  ],
  "transactionHash": "0xed13cdf83ef401ca1a9c81697c733fb954124fc905569db0165b13a79b961e6a",
  "args": [
    "0x59b22D57D4f067708AB0c00552767405926dc768"
  ],
  "numDeployments": 1,
  "solcInputHash": "639aa9d3155ac3cfe5f4d62b48105306",
  "bytecode": "0x608060405234801561001057600080fd5b506040516104c43803806104c4833981810160405281019061003291906100ed565b806000806101000a81548173ffffffffffffffffffffffffffffffffffffffff021916908373ffffffffffffffffffffffffffffffffffffffff1602179055505061011a565b600080fd5b600073ffffffffffffffffffffffffffffffffffffffff82169050919050565b60006100a88261007d565b9050919050565b60006100ba8261009d565b9050919050565b6100ca816100af565b81146100d557600080fd5b50565b6000815190506100e7816100c1565b92915050565b60006020828403121561010357610102610078565b5b6000610111848285016100d8565b91505092915050565b61039b806101296000396000f3fe608060405234801561001057600080fd5b506004361061002b5760003560e01c806362f73a8614610030575b600080fd5b61004a600480360381019061004591906101d9565b610060565b6040516100579190610252565b60405180910390f35b60008060009054906101000a900473ffffffffffffffffffffffffffffffffffffffff1673ffffffffffffffffffffffffffffffffffffffff16631789cd638585856040518463ffffffff1660e01b81526004016100c0939291906102da565b6020604051808303816000875af11580156100df573d6000803e3d6000fd5b505050506040513d601f19601f820116820180604052508101906101039190610338565b90509392505050565b600080fd5b600080fd5b600073ffffffffffffffffffffffffffffffffffffffff82169050919050565b600061014182610116565b9050919050565b61015181610136565b811461015c57600080fd5b50565b60008135905061016e81610148565b92915050565b600080fd5b600080fd5b600080fd5b60008083601f84011261019957610198610174565b5b8235905067ffffffffffffffff8111156101b6576101b5610179565b5b6020830191508360018202830111156101d2576101d161017e565b5b9250929050565b6000806000604084860312156101f2576101f161010c565b5b60006102008682870161015f565b935050602084013567ffffffffffffffff81111561022157610220610111565b5b61022d86828701610183565b92509250509250925092565b6000819050919050565b61024c81610239565b82525050565b60006020820190506102676000830184610243565b92915050565b61027681610136565b82525050565b600082825260208201905092915050565b82818337600083830152505050565b6000601f19601f8301169050919050565b60006102b9838561027c565b93506102c683858461028d565b6102cf8361029c565b840190509392505050565b60006040820190506102ef600083018661026d565b81810360208301526103028184866102ad565b9050949350505050565b61031581610239565b811461032057600080fd5b50565b6000815190506103328161030c565b92915050565b60006020828403121561034e5761034d61010c565b5b600061035c84828501610323565b9150509291505056fea26469706673582212200839520144904f5fcbf72655702e7e8ed55a98257af1c6e21a5b70d08b660d7f64736f6c63430008120033",
  "devdoc": {
    "kind": "dev",
    "methods": {
      "constructor": {
        "params": {
          "_inputBox": "input box to send inputs to Cartesi DApps"
        }
      },
      "relayBlock(address,bytes)": {
        "details": "Called by clients to securely relay Espresso data to Cartesi DApps",
        "params": {
          "_blockHash": "Espresso block hash given as a Tagged Base64 string using a \"BLOCK~\" prefix tag",
          "_dapp": "The address of the DApp"
        },
        "returns": {
          "_0": "The hash of the input as returned by the Cartesi DApp's input box"
        }
      }
    },
    "title": "EspressoRelay",
    "version": 1
  },
  "userdoc": {
    "kind": "user",
    "methods": {
      "constructor": {
        "notice": "Constructor"
      },
      "relayBlock(address,bytes)": {
        "notice": "Relay an Espresso block hash as an input to a DApp's input box"
      }
    },
    "notice": "Relays Espresso blocks as inputs to Cartesi DApps",
    "version": 1
  },
  "storageLayout": {
    "storage": [
      {
        "astId": 50,
        "contract": "contracts/EspressoRelay.sol:EspressoRelay",
        "label": "inputBox",
        "offset": 0,
        "slot": "0",
        "type": "t_contract(IInputBox)42"
      }
    ],
    "types": {
      "t_contract(IInputBox)42": {
        "encoding": "inplace",
        "label": "contract IInputBox",
        "numberOfBytes": "20"
      }
    }
  }
}